{
  "address": "0x2aBF3c08597880C817Ff277e1c6899f3fa4997A7",
  "abi": [
    {
      "anonymous": false,
      "inputs": [
        {
          "indexed": false,
          "internalType": "address",
          "name": "contractAddress",
          "type": "address"
        },
        {
          "indexed": false,
          "internalType": "address",
          "name": "projectCreator",
          "type": "address"
        },
        {
          "indexed": false,
          "internalType": "string",
          "name": "title",
          "type": "string"
        },
        {
          "indexed": false,
          "internalType": "string",
          "name": "description",
          "type": "string"
        },
        {
          "indexed": false,
          "internalType": "string",
          "name": "imageLink",
          "type": "string"
        },
        {
          "indexed": false,
          "internalType": "uint256",
          "name": "fundRaisingDeadline",
          "type": "uint256"
        },
        {
          "indexed": false,
          "internalType": "uint256",
          "name": "goalAmount",
          "type": "uint256"
        }
      ],
      "name": "ProjectStarted",
      "type": "event"
    },
    {
      "inputs": [],
      "name": "returnProjects",
      "outputs": [
        {
          "internalType": "contract Project[]",
          "name": "",
          "type": "address[]"
        }
      ],
      "stateMutability": "view",
      "type": "function"
    },
    {
      "inputs": [
        {
          "internalType": "contract IERC20",
          "name": "cUSDToken",
          "type": "address"
        },
        {
          "internalType": "string",
          "name": "title",
          "type": "string"
        },
        {
          "internalType": "string",
          "name": "description",
          "type": "string"
        },
        {
          "internalType": "string",
          "name": "imageLink",
          "type": "string"
        },
        {
          "internalType": "uint256",
          "name": "durationInDays",
          "type": "uint256"
        },
        {
          "internalType": "uint256",
          "name": "amountToRaise",
          "type": "uint256"
        }
      ],
      "name": "startProject",
      "outputs": [],
      "stateMutability": "nonpayable",
      "type": "function"
    }
  ],
  "transactionHash": "0x43ada1ad588df3b1046aa9b58ddb7e5da5245433d6dc5369d37efcc852713b5e",
  "args": [],
  "numDeployments": 1,
  "solcInputHash": "a44f50ee0e62de6873e37df863ab7ad7",
  "bytecode": "0x608060405234801561001057600080fd5b506120d3806100206000396000f3fe60806040523480156200001157600080fd5b50600436106200003a5760003560e01c80631f0a07b6146200003f57806329957db0146200005f575b600080fd5b6200005d600480360381019062000057919062000304565b62000081565b005b62000069620001bb565b60405162000078919062000597565b60405180910390f35b6000620000af6200009f62015180856200024b90919063ffffffff16565b426200026390919063ffffffff16565b905060008a338b8b8b8b8b8b898b604051620000cb906200027b565b620000e09a99989796959493929190620005bb565b604051809103906000f080158015620000fd573d6000803e3d6000fd5b5090506000819080600181540180825580915050600190039060005260206000200160009091909190916101000a81548173ffffffffffffffffffffffffffffffffffffffff021916908373ffffffffffffffffffffffffffffffffffffffff1602179055507fc317f13e51fbbe0e6c97f372f8607e3fc3d532c0f8a7a894dd38fba96f2a284c81338c8c8c8c8c8c8a8c604051620001a69a99989796959493929190620004ff565b60405180910390a15050505050505050505050565b606060008054806020026020016040519081016040528092919081815260200182805480156200024157602002820191906000526020600020905b8160009054906101000a900473ffffffffffffffffffffffffffffffffffffffff1673ffffffffffffffffffffffffffffffffffffffff1681526020019060010190808311620001f6575b5050505050905090565b600081836200025b9190620006fa565b905092915050565b600081836200027391906200069d565b905092915050565b611809806200089583390190565b6000813590506200029a8162000860565b92915050565b60008083601f840112620002b357600080fd5b8235905067ffffffffffffffff811115620002cd57600080fd5b602083019150836001820283011115620002e657600080fd5b9250929050565b600081359050620002fe816200087a565b92915050565b600080600080600080600080600060c08a8c0312156200032357600080fd5b6000620003338c828d0162000289565b99505060208a013567ffffffffffffffff8111156200035157600080fd5b6200035f8c828d01620002a0565b985098505060408a013567ffffffffffffffff8111156200037f57600080fd5b6200038d8c828d01620002a0565b965096505060608a013567ffffffffffffffff811115620003ad57600080fd5b620003bb8c828d01620002a0565b94509450506080620003d08c828d01620002ed565b92505060a0620003e38c828d01620002ed565b9150509295985092959850929598565b6000620004018383620004aa565b60208301905092915050565b62000418816200076f565b82525050565b62000429816200075b565b82525050565b60006200043c8262000663565b6200044881856200067b565b9350620004558362000653565b8060005b838110156200048c578151620004708882620003f3565b97506200047d836200066e565b92505060018101905062000459565b5085935050505092915050565b620004a481620007c1565b82525050565b620004b581620007e9565b82525050565b6000620004c983856200068c565b9350620004d883858462000811565b620004e3836200084f565b840190509392505050565b620004f981620007b7565b82525050565b600060e08201905062000516600083018d6200041e565b62000525602083018c6200041e565b81810360408301526200053a818a8c620004bb565b905081810360608301526200055181888a620004bb565b9050818103608083015262000568818688620004bb565b90506200057960a0830185620004ee565b6200058860c0830184620004ee565b9b9a5050505050505050505050565b60006020820190508181036000830152620005b381846200042f565b905092915050565b600060e082019050620005d2600083018d62000499565b620005e1602083018c6200040d565b8181036040830152620005f6818a8c620004bb565b905081810360608301526200060d81888a620004bb565b9050818103608083015262000624818688620004bb565b90506200063560a0830185620004ee565b6200064460c0830184620004ee565b9b9a5050505050505050505050565b6000819050602082019050919050565b600081519050919050565b6000602082019050919050565b600082825260208201905092915050565b600082825260208201905092915050565b6000620006aa82620007b7565b9150620006b783620007b7565b9250827fffffffffffffffffffffffffffffffffffffffffffffffffffffffffffffffff03821115620006ef57620006ee62000820565b5b828201905092915050565b60006200070782620007b7565b91506200071483620007b7565b9250817fffffffffffffffffffffffffffffffffffffffffffffffffffffffffffffffff048311821515161562000750576200074f62000820565b5b828202905092915050565b6000620007688262000797565b9050919050565b60006200077c8262000797565b9050919050565b600062000790826200075b565b9050919050565b600073ffffffffffffffffffffffffffffffffffffffff82169050919050565b6000819050919050565b6000620007ce82620007d5565b9050919050565b6000620007e28262000797565b9050919050565b6000620007f682620007fd565b9050919050565b60006200080a8262000797565b9050919050565b82818337600083830152505050565b7f4e487b7100000000000000000000000000000000000000000000000000000000600052601160045260246000fd5b6000601f19601f8301169050919050565b6200086b8162000783565b81146200087757600080fd5b50565b6200088581620007b7565b81146200089157600080fd5b5056fe60806040526000600960006101000a81548160ff0219169083600281111562000051577f4e487b7100000000000000000000000000000000000000000000000000000000600052602160045260246000fd5b02179055503480156200006357600080fd5b5060405162001809380380620018098339818101604052810190620000899190620002df565b866000806101000a81548173ffffffffffffffffffffffffffffffffffffffff021916908373ffffffffffffffffffffffffffffffffffffffff16021790555085600160006101000a81548173ffffffffffffffffffffffffffffffffffffffff021916908373ffffffffffffffffffffffffffffffffffffffff16021790555084600690805190602001906200012292919062000178565b5083600790805190602001906200013b92919062000178565b5082600890805190602001906200015492919062000178565b508060028190555081600581905550600060048190555050505050505050620005fb565b8280546200018690620004d2565b90600052602060002090601f016020900481019282620001aa5760008555620001f6565b82601f10620001c557805160ff1916838001178555620001f6565b82800160010185558215620001f6579182015b82811115620001f5578251825591602001919060010190620001d8565b5b50905062000205919062000209565b5090565b5b80821115620002245760008160009055506001016200020a565b5090565b60006200023f620002398462000400565b620003d7565b9050828152602081018484840111156200025857600080fd5b620002658482856200049c565b509392505050565b6000815190506200027e81620005ad565b92915050565b6000815190506200029581620005c7565b92915050565b600082601f830112620002ad57600080fd5b8151620002bf84826020860162000228565b91505092915050565b600081519050620002d981620005e1565b92915050565b600080600080600080600060e0888a031215620002fb57600080fd5b60006200030b8a828b0162000284565b97505060206200031e8a828b016200026d565b965050604088015167ffffffffffffffff8111156200033c57600080fd5b6200034a8a828b016200029b565b955050606088015167ffffffffffffffff8111156200036857600080fd5b620003768a828b016200029b565b945050608088015167ffffffffffffffff8111156200039457600080fd5b620003a28a828b016200029b565b93505060a0620003b58a828b01620002c8565b92505060c0620003c88a828b01620002c8565b91505092959891949750929550565b6000620003e3620003f6565b9050620003f1828262000508565b919050565b6000604051905090565b600067ffffffffffffffff8211156200041e576200041d6200056d565b5b62000429826200059c565b9050602081019050919050565b6000620004438262000472565b9050919050565b6000620004578262000472565b9050919050565b60006200046b8262000436565b9050919050565b600073ffffffffffffffffffffffffffffffffffffffff82169050919050565b6000819050919050565b60005b83811015620004bc5780820151818401526020810190506200049f565b83811115620004cc576000848401525b50505050565b60006002820490506001821680620004eb57607f821691505b602082108114156200050257620005016200053e565b5b50919050565b62000513826200059c565b810181811067ffffffffffffffff821117156200053557620005346200056d565b5b80604052505050565b7f4e487b7100000000000000000000000000000000000000000000000000000000600052602260045260246000fd5b7f4e487b7100000000000000000000000000000000000000000000000000000000600052604160045260246000fd5b6000601f19601f8301169050919050565b620005b8816200044a565b8114620005c457600080fd5b50565b620005d2816200045e565b8114620005de57600080fd5b50565b620005ec8162000492565b8114620005f857600080fd5b50565b6111fe806200060b6000396000f3fe6080604052600436106100dd5760003560e01c80637284e4161161007f578063c205240311610059578063c20524031461027f578063caf7b759146102aa578063ce845d1d146102d5578063fbbf93a014610300576100dd565b80637284e4161461020d578063c19d93fb14610238578063c1cbbca714610263576100dd565b806342e94c90116100bb57806342e94c901461014f5780634a79d50c1461018c5780634c4cea5a146101b7578063510b1183146101e2576100dd565b806302d05d3f146100e257806315879c291461010d5780632636b94514610124575b600080fd5b3480156100ee57600080fd5b506100f7610332565b6040516101049190610d8d565b60405180910390f35b34801561011957600080fd5b50610122610358565b005b34801561013057600080fd5b506101396103b6565b6040516101469190610f2a565b60405180910390f35b34801561015b57600080fd5b5061017660048036038101906101719190610c64565b6103bc565b6040516101839190610f2a565b60405180910390f35b34801561019857600080fd5b506101a16103d4565b6040516101ae9190610f08565b60405180910390f35b3480156101c357600080fd5b506101cc610462565b6040516101d99190610f2a565b60405180910390f35b3480156101ee57600080fd5b506101f7610468565b6040516102049190610f2a565b60405180910390f35b34801561021957600080fd5b5061022261046e565b60405161022f9190610f08565b60405180910390f35b34801561024457600080fd5b5061024d6104fc565b60405161025a9190610eed565b60405180910390f35b61027d60048036038101906102789190610cb6565b61050f565b005b34801561028b57600080fd5b50610294610745565b6040516102a19190610ed2565b60405180910390f35b3480156102b657600080fd5b506102bf610977565b6040516102cc9190610f08565b60405180910390f35b3480156102e157600080fd5b506102ea610a05565b6040516102f79190610f2a565b60405180910390f35b34801561030c57600080fd5b50610315610a0b565b604051610329989796959493929190610da8565b60405180910390f35b600160009054906101000a900473ffffffffffffffffffffffffffffffffffffffff1681565b6005544211156103b4576001600960006101000a81548160ff021916908360028111156103ae577f4e487b7100000000000000000000000000000000000000000000000000000000600052602160045260246000fd5b02179055505b565b60025481565b600a6020528060005260406000206000915090505481565b600680546103e19061109f565b80601f016020809104026020016040519081016040528092919081815260200182805461040d9061109f565b801561045a5780601f1061042f5761010080835404028352916020019161045a565b820191906000526020600020905b81548152906001019060200180831161043d57829003601f168201915b505050505081565b60035481565b60055481565b6007805461047b9061109f565b80601f01602080910402602001604051908101604052809291908181526020018280546104a79061109f565b80156104f45780601f106104c9576101008083540402835291602001916104f4565b820191906000526020600020905b8154815290600101906020018083116104d757829003601f168201915b505050505081565b600960009054906101000a900460ff1681565b600080600281111561054a577f4e487b7100000000000000000000000000000000000000000000000000000000600052602160045260246000fd5b600960009054906101000a900460ff166002811115610592577f4e487b7100000000000000000000000000000000000000000000000000000000600052602160045260246000fd5b1461059c57600080fd5b60008054906101000a900473ffffffffffffffffffffffffffffffffffffffff1673ffffffffffffffffffffffffffffffffffffffff166323b872dd3330856040518463ffffffff1660e01b81526004016105f993929190610e3b565b602060405180830381600087803b15801561061357600080fd5b505af1158015610627573d6000803e3d6000fd5b505050506040513d601f19601f8201168201806040525081019061064b9190610c8d565b5061069e82600a60003373ffffffffffffffffffffffffffffffffffffffff1673ffffffffffffffffffffffffffffffffffffffff16815260200190815260200160002054610c0f90919063ffffffff16565b600a60003373ffffffffffffffffffffffffffffffffffffffff1673ffffffffffffffffffffffffffffffffffffffff168152602001908152602001600020819055506106f682600454610c0f90919063ffffffff16565b6004819055507fb1bd58229606cd4dec94cb51b41275ea217cfa548aac87d25510ea49595312e5338360045460405161073193929190610e9b565b60405180910390a1610741610358565b5050565b6000600160009054906101000a900473ffffffffffffffffffffffffffffffffffffffff1673ffffffffffffffffffffffffffffffffffffffff163373ffffffffffffffffffffffffffffffffffffffff16146107a157600080fd5b60006004549050600060048190555060008054906101000a900473ffffffffffffffffffffffffffffffffffffffff1673ffffffffffffffffffffffffffffffffffffffff1663a9059cbb33836040518363ffffffff1660e01b815260040161080b929190610e72565b602060405180830381600087803b15801561082557600080fd5b505af1158015610839573d6000803e3d6000fd5b505050506040513d601f19601f8201168201806040525081019061085d9190610c8d565b15610916577f2f256415efc8561af8db667cb242964b19be7380f379ccdafaa0e54a6f6b7069600160009054906101000a900473ffffffffffffffffffffffffffffffffffffffff166040516108b39190610d72565b60405180910390a16002600960006101000a81548160ff02191690836002811115610907577f4e487b7100000000000000000000000000000000000000000000000000000000600052602160045260246000fd5b02179055506001915050610974565b806004819055506002600960006101000a81548160ff02191690836002811115610969577f4e487b7100000000000000000000000000000000000000000000000000000000600052602160045260246000fd5b021790555060009150505b90565b600880546109849061109f565b80601f01602080910402602001604051908101604052809291908181526020018280546109b09061109f565b80156109fd5780601f106109d2576101008083540402835291602001916109fd565b820191906000526020600020905b8154815290600101906020018083116109e057829003601f168201915b505050505081565b60045481565b60006060806060600080600080600160009054906101000a900473ffffffffffffffffffffffffffffffffffffffff16975060068054610a4a9061109f565b80601f0160208091040260200160405190810160405280929190818152602001828054610a769061109f565b8015610ac35780601f10610a9857610100808354040283529160200191610ac3565b820191906000526020600020905b815481529060010190602001808311610aa657829003601f168201915b5050505050965060078054610ad79061109f565b80601f0160208091040260200160405190810160405280929190818152602001828054610b039061109f565b8015610b505780601f10610b2557610100808354040283529160200191610b50565b820191906000526020600020905b815481529060010190602001808311610b3357829003601f168201915b5050505050955060088054610b649061109f565b80601f0160208091040260200160405190810160405280929190818152602001828054610b909061109f565b8015610bdd5780601f10610bb257610100808354040283529160200191610bdd565b820191906000526020600020905b815481529060010190602001808311610bc057829003601f168201915b505050505094506005549350600960009054906101000a900460ff169250600254915060045490509091929394959697565b60008183610c1d9190610f61565b905092915050565b600081359050610c3481611183565b92915050565b600081519050610c498161119a565b92915050565b600081359050610c5e816111b1565b92915050565b600060208284031215610c7657600080fd5b6000610c8484828501610c25565b91505092915050565b600060208284031215610c9f57600080fd5b6000610cad84828501610c3a565b91505092915050565b600060208284031215610cc857600080fd5b6000610cd684828501610c4f565b91505092915050565b610ce881611024565b82525050565b610cf781610fc9565b82525050565b610d0681610fb7565b82525050565b610d1581610fdb565b82525050565b610d2481611036565b82525050565b6000610d3582610f45565b610d3f8185610f50565b9350610d4f81856020860161106c565b610d588161115e565b840191505092915050565b610d6c8161101a565b82525050565b6000602082019050610d876000830184610cdf565b92915050565b6000602082019050610da26000830184610cee565b92915050565b600061010082019050610dbe600083018b610cee565b8181036020830152610dd0818a610d2a565b90508181036040830152610de48189610d2a565b90508181036060830152610df88188610d2a565b9050610e076080830187610d63565b610e1460a0830186610d1b565b610e2160c0830185610d63565b610e2e60e0830184610d63565b9998505050505050505050565b6000606082019050610e506000830186610cfd565b610e5d6020830185610cfd565b610e6a6040830184610d63565b949350505050565b6000604082019050610e876000830185610cfd565b610e946020830184610d63565b9392505050565b6000606082019050610eb06000830186610cfd565b610ebd6020830185610d63565b610eca6040830184610d63565b949350505050565b6000602082019050610ee76000830184610d0c565b92915050565b6000602082019050610f026000830184610d1b565b92915050565b60006020820190508181036000830152610f228184610d2a565b905092915050565b6000602082019050610f3f6000830184610d63565b92915050565b600081519050919050565b600082825260208201905092915050565b6000610f6c8261101a565b9150610f778361101a565b9250827fffffffffffffffffffffffffffffffffffffffffffffffffffffffffffffffff03821115610fac57610fab6110d1565b5b828201905092915050565b6000610fc282610ffa565b9050919050565b6000610fd482610ffa565b9050919050565b60008115159050919050565b6000819050610ff58261116f565b919050565b600073ffffffffffffffffffffffffffffffffffffffff82169050919050565b6000819050919050565b600061102f82611048565b9050919050565b600061104182610fe7565b9050919050565b60006110538261105a565b9050919050565b600061106582610ffa565b9050919050565b60005b8381101561108a57808201518184015260208101905061106f565b83811115611099576000848401525b50505050565b600060028204905060018216806110b757607f821691505b602082108114156110cb576110ca61112f565b5b50919050565b7f4e487b7100000000000000000000000000000000000000000000000000000000600052601160045260246000fd5b7f4e487b7100000000000000000000000000000000000000000000000000000000600052602160045260246000fd5b7f4e487b7100000000000000000000000000000000000000000000000000000000600052602260045260246000fd5b6000601f19601f8301169050919050565b600381106111805761117f611100565b5b50565b61118c81610fb7565b811461119757600080fd5b50565b6111a381610fdb565b81146111ae57600080fd5b50565b6111ba8161101a565b81146111c557600080fd5b5056fea26469706673582212209c56402508b4703be4a8b6b6bb770ec55ff02d935971359a974ef4d26c5ada0f64736f6c63430008040033a2646970667358221220c6de00186f5d119be004f5d7bbd4811536f2bce2b72ab8508950afdf1ed0c86364736f6c63430008040033",
  "devdoc": {
    "kind": "dev",
    "methods": {},
    "version": 1
  },
  "userdoc": {
    "kind": "user",
    "methods": {},
    "version": 1
  },
  "storageLayout": {
    "storage": [
      {
        "astId": 400,
        "contract": "contracts/CrowdFund.sol:CrowdFund",
        "label": "projects",
        "offset": 0,
        "slot": "0",
        "type": "t_array(t_contract(Project)778)dyn_storage"
      }
    ],
    "types": {
      "t_array(t_contract(Project)778)dyn_storage": {
        "base": "t_contract(Project)778",
        "encoding": "dynamic_array",
        "label": "contract Project[]",
        "numberOfBytes": "32"
      },
      "t_contract(Project)778": {
        "encoding": "inplace",
        "label": "contract Project",
        "numberOfBytes": "20"
      }
    }
  }
}