{
  "address": "0xbA880aD38d931887D55Bd5C72B498D87E634C9e7",
  "abi": [
    {
      "anonymous": false,
      "inputs": [
        {
          "indexed": false,
          "internalType": "uint256",
          "name": "number",
          "type": "uint256"
        },
        {
          "indexed": false,
          "internalType": "address",
          "name": "sender",
          "type": "address"
        }
      ],
      "name": "newNumber",
      "type": "event"
    },
    {
      "inputs": [],
      "name": "retrieve",
      "outputs": [
        {
          "internalType": "uint256",
          "name": "",
          "type": "uint256"
        }
      ],
      "stateMutability": "view",
      "type": "function"
    },
    {
      "inputs": [
        {
          "internalType": "uint256",
          "name": "num",
          "type": "uint256"
        }
      ],
      "name": "store",
      "outputs": [],
      "stateMutability": "nonpayable",
      "type": "function"
    }
  ],
  "transactionHash": "0xee0a0d1425fc3c6c245819c5a52cb17205e48a11266418687a15a2e53440a159",
  "args": [],
  "numDeployments": 4,
  "solcInputHash": "fe52633fcac9e8b6247dfce79abf64fb",
  "bytecode": "0x6080604052600160005534801561001557600080fd5b506101ea806100256000396000f3fe608060405234801561001057600080fd5b50600436106100365760003560e01c80632e64cec11461003b5780636057361d14610059575b600080fd5b610043610075565b604051610050919061011d565b60405180910390f35b610073600480360381019061006e91906100d6565b61007e565b005b60008054905090565b806000819055507fec82311f97b04658298386090ef20f797cdda0d5c70aecd631063241c68facf881336040516100b6929190610138565b60405180910390a150565b6000813590506100d08161019d565b92915050565b6000602082840312156100e857600080fd5b60006100f6848285016100c1565b91505092915050565b61010881610161565b82525050565b61011781610193565b82525050565b6000602082019050610132600083018461010e565b92915050565b600060408201905061014d600083018561010e565b61015a60208301846100ff565b9392505050565b600061016c82610173565b9050919050565b600073ffffffffffffffffffffffffffffffffffffffff82169050919050565b6000819050919050565b6101a681610193565b81146101b157600080fd5b5056fea2646970667358221220600d99b1d1ed56977521eb39987ed62268d060050a16f19ee0145969658e24df64736f6c63430008040033",
  "devdoc": {
    "details": "Store & retrieve value in a variable",
    "kind": "dev",
    "methods": {
      "retrieve()": {
        "details": "Return value ",
        "returns": {
          "_0": "value of 'number'"
        }
      },
      "store(uint256)": {
        "details": "Store value in variable",
        "params": {
          "num": "value to store"
        }
      }
    },
    "title": "Storage",
    "version": 1
  },
  "userdoc": {
    "kind": "user",
    "methods": {},
    "version": 1
  },
  "storageLayout": {
    "storage": [
      {
        "astId": 1508,
        "contract": "contracts/Storage.sol:Storage",
        "label": "number",
        "offset": 0,
        "slot": "0",
        "type": "t_uint256"
      }
    ],
    "types": {
      "t_uint256": {
        "encoding": "inplace",
        "label": "uint256",
        "numberOfBytes": "32"
      }
    }
  }
}